:100000000C942A000C9447000C9447000C94470071
:100010000C9447000C9447000C9447000C94470044
:100020000C9447000C9447000C9447000C94470034
:100030000C9447000C9447000C9447000C94470024
:100040000C9447000C9447000C9447000C94470014
:100050000C94470011241FBECFE5D8E0DEBFCDBF12
:1000600010E0A0E6B0E0E8E9F8E002C005900D92EB
:10007000AA3AB107D9F720E0AAEAB0E001C01D9280
:10008000A03BB207E1F70E948D030C944A040C9444
:100090000000813001F130F08230B1F1833009F499
:1000A0004CC0089541110CC02AB381E090E002C019
:1000B000880F991F6A95E2F7809582238ABB08957D
:1000C0002AB381E090E002C0880F991F6A95E2F799
:1000D000822B8ABB089541110CC027B381E090E0C8
:1000E00002C0880F991F6A95E2F78095822387BB2B
:1000F000089527B381E090E002C0880F991F6A95A8
:10010000E2F7822B87BB089541110CC024B381E034
:1001100090E002C0880F991F6A95E2F780958223CC
:1001200084BB089524B381E090E002C0880F991F3A
:100130006A95E2F7822B84BB089541110CC021B36C
:1001400081E090E002C0880F991F6A95E2F78095E0
:10015000822381BB089521B381E090E002C0880F23
:10016000991F6A95E2F7822B81BB0895813001F1D6
:1001700030F08230B1F1833009F44CC00895413041
:1001800059F42BB381E090E002C0880F991F6A9563
:10019000E2F7822B8BBB08952BB381E090E002C085
:1001A000880F991F6A95E2F7809582238BBB08958B
:1001B000413059F428B381E090E002C0880F991FC4
:1001C0006A95E2F7822B88BB089528B381E090E01E
:1001D00002C0880F991F6A95E2F78095822388BB39
:1001E0000895413059F425B381E090E002C0880FB2
:1001F000991F6A95E2F7822B85BB089525B381E0AC
:1002000090E002C0880F991F6A95E2F780958223DB
:1002100085BB0895413059F422B381E090E002C0DB
:10022000880F991F6A95E2F7822B82BB089522B34B
:1002300081E090E002C0880F991F6A95E2F78095EF
:10024000822382BB0895813071F028F0823099F0CA
:100250008330C9F008958BB3962F90958923462358
:10026000482B4BBB08958BB3962F9095892346233B
:10027000482B48BB08958BB3962F9095892346232E
:10028000482B45BB08958BB3962F90958923462321
:10029000482B42BB089541E063E081E00E94B60034
:1002A000000040E063E081E00E94B60083EF91E04F
:1002B0000197F1F700C000000895CF93DF93C82F96
:1002C000D82FD295D07F41E061E081E00E94B60056
:1002D0004C2F60EF80E00E9423010E944B014D2FC4
:1002E00060EF80E00E9423010E944B01DF91CF91DB
:1002F0000895CF93DF93C82FD82FD295D07F40E0B9
:1003000061E081E00E94B6004C2F60EF80E00E9427
:1003100023010E944B014D2F60EF80E00E942301DA
:100320000E944B01DF91CF9108950E945D010895D5
:100330000F931F93CF93DF93D0E01DC00D2F10E0DC
:10034000C8010896880F880F880F0E947901C0E0C5
:100350000FC0F801EE0FFF1FEE0FFF1FEE0FFF1F84
:10036000E05AFF4FEC0FF11D80810E949501CF5F95
:10037000C83078F3DF5FD83008F3DF91CF911F9159
:100380000F910895CF93DF93EC0103C00E94950174
:10039000219688818111FACFDF91CF91089588232A
:1003A00019F0813031F0089580E8860F0E947901BC
:1003B000089580EC860F0E947901089541E064E081
:1003C00080E00E94490041E065E080E00E94490031
:1003D00041E066E080E00E94490041E067E080E0A3
:1003E0000E94490041E061E081E00E94490041E053
:1003F00062E081E00E94490041E063E081E00E9408
:10040000490040E062E081E00E94B60085EA9EE09B
:100410000197F1F700C0000083E00E94790181EEAE
:1004200094E00197F1F700C0000083E00E94790199
:1004300091E29A95F1F7000083E00E94790182E051
:100440000E94790188E20E9479010E94980160E08F
:1004500080E00E94CF018CE00E9479010895EF9224
:10046000FF920F931F93CF93DF93EC017C01F694DF
:10047000E794F694E794F694E7949701A5ECB0E23C
:100480000E9419048C01129502950F7001271F70AC
:10049000012780E3800F0E94950128EE33E0029F40
:1004A000C001039F900D129F900D1124C81BD90B02
:1004B0007E01F694E794F694E7949701ABE7B4E1F4
:1004C0000E9419048C011695079580E3800F0E9405
:1004D000950124E6209FC001219F900D1124C81B87
:1004E000D90B9E01ADECBCEC0E9419048C01169551
:1004F0000795169507951695079580E3800F0E943E
:100500009501C801880F991F000F111F000F111FBF
:10051000000F111F080F191FCE01801B910B805D6A
:100520000E949501DF91CF911F910F91FF90EF9065
:100530000895CF93DF93D82FCDEC8C9FC12D11243C
:10054000C695C695C69580E38C0F0E949501CC0F89
:100550008C2F880F880FC80F8D2F8C1B805D0E94F9
:100560009501DF91CF91089560E070E080E090E028
:100570000E94CF0180EA90E00E94C20166E070E034
:1005800080E090E00E94CF0183EA90E00E94C201E7
:100590006CE070E080E090E00E94CF0186EA90E09D
:1005A0000E94C2010895CF92DF92EF92FF920F93C3
:1005B0001F93CF93DF930091AE001091AF00C091D5
:1005C000AA00D091AB00C01BD10B9E010D2E000CD8
:1005D000440B550B60E87EE380E090E00E94FA0354
:1005E00069017A012091AC003091AD00201B310BE4
:1005F00044E6429FC001439F900D1124BE010E941A
:10060000D2038B0162E070E080E090E00E94CF01B5
:10061000C6010E942F0268E070E080E090E00E9436
:10062000CF01CE010E942F026EE070E080E090E0EA
:100630000E94CF01C8010E949902DF91CF911F91C2
:100640000F91FF90EF90DF90CF900895CF92DF92BF
:10065000EF92FF920F931F93CF93DF934091AE00E1
:100660005091AF002091AC003091AD00241B350BB0
:1006700064E6629FC001639F900D11246091AA00FF
:100680007091AB00641B750B0E94D203CB01880FE5
:10069000991F880F991F880F991F64E670E00E94C8
:1006A000E6037B0108E010E0061B170B60E070E03A
:1006B00081E090E00E94CF01C12CD12C21C080E0CC
:1006C00090E00E949501C1E0D0E005C081E090E09B
:1006D0000E9495012196CE15DF05C4F382E090E0DB
:1006E0000E949501C1E0D0E005C083E090E00E9447
:1006F00095012196C017D107C4F38FEFC81AD80A05
:1007000084E0C816D104DCF2DF91CF911F910F91E4
:10071000FF90EF90DF90CF9008950E94DE010E943D
:10072000B40240E066E083E00E944900C7B5D0E033
:10073000DC2FCC2786B5C82B8DB58CB588B78062E9
:1007400088BF1FBC81E48EBD88B7807288BF8823B4
:10075000D9F3D093AF00C093AE0088B7806288BF52
:1007600081E08EBD88B7807288BF8823D9F3D0938B
:10077000AD00C093AC0088B7806288BF81E48EBDB5
:1007800088B7807288BF8823D9F3D093AB00C09319
:10079000AA0088B7806288BF1EBC0E94D3020E9454
:1007A0002603CFCFAA1BBB1B51E107C0AA1FBB1F4B
:1007B000A617B70710F0A61BB70B881F991F5A95ED
:1007C000A9F780959095BC01CD01089597FB072E60
:1007D00016F4009407D077FD09D00E94D20307FCDD
:1007E00005D03EF4909581959F4F08957095619541
:1007F0007F4F0895052E97FB1EF400940E9411046C
:1008000057FD07D00E94280407FC03D04EF40C9437
:10081000110450954095309521953F4F4F4F5F4FB4
:10082000089590958095709561957F4F8F4F9F4F5C
:100830000895A29FB001B39FC001A39F700D811DB9
:100840001124911DB29F700D811D1124911D0895D9
:10085000A1E21A2EAA1BBB1BFD010DC0AA1FBB1FC4
:10086000EE1FFF1FA217B307E407F50720F0A21B36
:10087000B30BE40BF50B661F771F881F991F1A94A3
:1008800069F760957095809590959B01AC01BD01CD
:08089000CF010895F894FFCF99
:100898001F101010101010101F00000000000000A2
:1008A800101010101010101F000000000000001F92
:1008B8000000000000000000000000000000000030
:1008C8000000000000000000000000000000000020
:0A08D800463D00543D00443D000081
:00000001FF
